:1000000077ED00F07DED00F0C06AC26ACEB604EF75
:1000100000F017EF00F0CEB61200BCECFFF0BCEC25
:10002000FFF013EF00F0CEB613EF00F01200010E58
:10003000C06E010EC26F0BEC00F0F1EDFFF00BECA7
:1000400000F0020EC06E020EC26F0BEC00F0F1ED7C
:10005000FFF00BEC00F0F1EDFFF00BEC00F0040E04
:10006000C06E010EC26F0BEC00F0F1EDFFF00BEC77
:1000700000F0080EC06E020EC26F0BEC00F0F1ED46
:10008000FFF00BEC00F0F1EDFFF00BEC00F0100EC8
:10009000C06E010EC26F0BEC00F0F1EDFFF00BEC47
:1000A00000F0200EC06E020EC26F0BEC00F0F1EDFE
:1000B000FFF00BEC00F0F1EDFFF00BEC00F0400E68
:1000C000C06E010EC26F0BEC00F0F1EDFFF00BEC17
:1000D00000F0800EC06E020EC26F0BEC00F0F1ED6E
:1000E000FFF00BEC00F0F1EDFFF017EF00F0000176
:1000F000600EAD6F020EB16F12000401D06B106B79
:10010000C86A0401D26B206BCA6A0401CE6B006B13
:06011000C6870187120002
:020000040001F9
:10FE920000EF00F0010E006E0000002E4DEFFFF0AB
:10FEA2001200060E006E0000002E55EFFFF0120049
:10FEB2000B0E006E0000002E5BEFFFF01200170E1B
:10FEC200006E000000000000002E64EFFFF0120040
:10FED200400E006E00000000002E6DEFFFF01200D9
:10FEE2003D0E006E0000002E73EFFFF012007B0E3D
:10FEF200006E000000000000002E7CEFFFF01200F8
:10FF0200F80E006E000000000000002E85EFFFF0EA
:10FF12001200050E016E00000000F80E006E0000D7
:10FF2200002E90EFFFF00000012E8EEFFFF0000098
:10FF3200000012000A0E016E00000000F80E006EB2
:10FF42000000002EA1EFFFF000000000012E9FEF45
:10FF5200FFF0000000001200190E016EF80E006E94
:10FF620000000000002EB2EFFFF000000000012EA2
:10FF7200AFEFFFF01200320E016EF80E006E0000BD
:10FF82000000002EC1EFFFF000000000012EBEEFC6
:10FF9200FFF01200640E016EF80E006E0000000009
:10FFA200002ED0EFFFF000000000012ECDEFFFF099
:10FFB2001200C80E016EF80E006E00000000002E46
:10FFC200DFEFFFF000000000012EDCEFFFF0120077
:10FFD200F1ECFFF0F1ECFFF0F1ECFFF0F1ECFFF0EF
:10FFE200FA0E016EF80E006E0000002EF5EFFFF023
:0EFFF200000000000000012EF3EFFFF01200EF
:020000040030CA
:10000000EC0D27C79FFFFFFFFFFFFFFFFFFFFFFF75
:10001000FFFFFFFFFFFFFFFFFFFFFFFFFFFFFFFFF0
:03002000FFFFFFE0
:00000001FF
