:0400000011EF00F00C
:08000800B8A01000A5EF00F004
:10001800AFA00000AF9050EF00F054ED00F05AEDA3
:1000280000F076ED00F080ED00F01BEF00F0C376F5
:10003800A0ED00F0C376A0ED00F01BEF00F0810EFC
:10004800C06E91ED00F0420EC06E91ED00F0240EEE
:10005800C06E91ED00F0180EC06E91ED00F0000E2C
:10006800C06E91ED00F0180EC06E91ED00F0240EF8
:10007800C06E91ED00F0420EC06E91ED00F0810E61
:10008800C06E91ED00F0000EC06E91ED00F0022EF2
:1000980023EF00F0A5EF00F0050E026E23EF00F04D
:1000A8000001600EAD6F020EB16F12000401D36B38
:1000B800C387C385286BCB97CB950401CE6B006BA8
:1000C800C68701870401CF6B086BC78909890401BA
:1000D800D36B286BCB8509850401D06BC06B106B83
:1000E800C86B12000201030E3E6F02010C0E3F6F37
:1000F80002012A0E406F1200D68A030163916881BB
:100108006C81D690AF909F80D692B490A480D694FC
:10011800B890A880D68ED68C1200FA0E016EF80E12
:10012800006E0000002E95EF00F0000000000000B7
:10013800012E93EF00F0120091ED00F091ED00F028
:020148001200A3
:020000040030CA
:10000000EC0D27C79FFFFFFFFFFFFFFFFFFFFFFF75
:10001000FFFFFFFFFFFFFFFFFFFFFFFFFFFFFFFFF0
:03002000FFFFFFE0
:00000001FF
