:1000000096ED00F09CED00F0C00ED16EE8ECFFF034
:10001000CEB60DEF00F05EEF00F0F90ED16EE8EC19
:10002000FFF0CEB616EF00F05EEF00F0A40ED16E3A
:10003000E8ECFFF0CEB61FEF00F05EEF00F0B00E80
:10004000D16EE8ECFFF0CEB628EF00F05EEF00F0E6
:10005000990ED16EE8ECFFF0CEB631EF00F05EEF16
:1000600000F0920ED16EE8ECFFF0CEB63AEF00F061
:100070005EEF00F0820ED16EE8ECFFF0CEB643EFFB
:1000800000F05EEF00F0F80ED16EE8ECFFF0CEB6B7
:100090004CEF00F05EEF00F0800ED16EE8ECFFF068
:1000A000CEB655EF00F05EEF00F0900ED16EE8ECAA
:1000B000FFF0CEB604EF00F05EEF00F0880ED16ED8
:1000C000E8ECFFF0CEB604EF00F067EF00F0830E2F
:1000D000D16EE8ECFFF0CEB604EF00F070EF00F068
:1000E000C60ED16EE8ECFFF0CEB604EF00F079EF6B
:1000F00000F0A10ED16EE8ECFFF0CEB604EF00F0F8
:1001000082EF00F0860ED16FE8ECFFF0CEB604EF80
:1001100000F08BEF00F00401C1698E0ED16FE8ECA6
:10012000FFF0CEB604EF00F05EEF00F00001600ECD
:10013000AD6F020EB16F12000401D16BC18F186B4D
:10014000000EC96E0401CE6B006BC68701871200DA
:020000040001F9
:10FE900000EF00F0010E006E0000002E4CEFFFF0AE
:10FEA0001200060E006E0000002E54EFFFF012004C
:10FEB0000B0E006E0000002E5AEFFFF01200170E1E
:10FEC000006E000000000000002E63EFFFF0120043
:10FED000400E006E00000000002E6CEFFFF01200DC
:10FEE0003D0E006E0000002E72EFFFF012007B0E40
:10FEF000006E000000000000002E7BEFFFF01200FB
:10FF0000F80E006E000000000000002E84EFFFF0ED
:10FF10001200050E016E00000000F80E006E0000D9
:10FF2000002E8FEFFFF00000012E8DEFFFF000009C
:10FF3000000012000A0E016E00000000F80E006EB4
:10FF40000000002EA0EFFFF000000000012E9EEF49
:10FF5000FFF0000000001200190E016EF80E006E96
:10FF600000000000002EB1EFFFF000000000012EA5
:10FF7000AEEFFFF01200320E016EF80E006E0000C0
:10FF80000000002EC0EFFFF000000000012EBDEFCA
:10FF9000FFF01200640E016EF80E006E000000000B
:10FFA000002ECFEFFFF000000000012ECCEFFFF09D
:10FFB0001200C80E016EF80E006E00000000002E48
:10FFC000DEEFFFF000000000012EDBEFFFF012007B
:10FFD000F1ECFFF0F1ECFFF0F1ECFFF0F1ECFFF0F1
:10FFE0001200FA0E016EF80E006E0000002EF5EF02
:10FFF000FFF0000000000000012EF3EFFFF0120000
:020000040030CA
:10000000EC0D27C79FFFFFFFFFFFFFFFFFFFFFFF75
:10001000FFFFFFFFFFFFFFFFFFFFFFFFFFFFFFFFF0
:03002000FFFFFFE0
:00000001FF
