:1000000094ED00F09AED00F020EC02F0E8ECFFF047
:10001000CEB6C5EF01F0D5EF01F0CEB612EF00F08D
:1000200052EF00F00450086218EF00F00DEF00F0FE
:1000300004B604A01EEF00F038EF00F0010E042417
:10004000046E1814E5EC01F0040ECE6ECE80CE9056
:1000500004501914306E3042304230423042305039
:10006000E5EC01F0CE82CE92E8ECFFF00DEF00F06F
:10007000070E0424046E1814E5EC01F0040ECE6E95
:10008000CE80CE9004501914306E3042304230424F
:1000900030423050E5EC01F0CE82CE92E8ECFFF039
:1000A0000DEF00F00450106E106659EF00F00DEFE8
:1000B00000F03514316E316660EF00F07AEF00F039
:1000C000010E045C046E1814E5EC01F0040ECE6E13
:1000D000CE80CE9004501914306E304230423042FF
:1000E00030423050E5EC01F0CE82CE92E8ECFFF0E9
:1000F0000DEF00F0070E045C046E1814E5EC01F03F
:10010000040ECE6ECE80CE9004501914306E304264
:100110003042304230423050E5EC01F0CE82CE9297
:10012000E8ECFFF00DEF00F00001600EAD6F020E85
:10013000B16F12000401CE6B006BC687C691C693E7
:10014000C69501871200000ECE6ECE80CE90000EB6
:10015000CE6ECE80CE90040ECE6ECE80CE90040EAB
:10016000CE6ECE80CE90000ECE6ECE80CE90000EA3
:10017000CE6ECE80CE90000ECE6ECE80CE9012008F
:10018000000ECE6ECE80CE90000ECE6ECE80CE9083
:10019000000ECE6ECE80CE90000ECE6ECE80CE9073
:1001A000000ECE6ECE80CE90000ECE6ECE80CE9063
:1001B000000ECE6ECE80CE901200040ECE6ECE809B
:1001C000CE90040ECE6ECE80CE90040ECE6ECE803B
:1001D000CE90040ECE6ECE80CE90000ECE6ECE802F
:1001E000CE90000ECE6ECE80CE90000ECE6ECE8023
:1001F000CE901200000ECE6ECE80CE90000ECE6E4F
:10020000CE80CE90000ECE6ECE80CE90000ECE6E02
:10021000CE80CE90000ECE6ECE80CE90040ECE6EEE
:10022000CE80CE90040ECE6ECE80CE901200000E08
:10023000CE6ECE80CE90000ECE6ECE80CE90040ECE
:10024000CE6ECE80CE90000ECE6ECE80CE90000EC2
:10025000CE6ECE80CE90040ECE6ECE80CE90000EAE
:10026000CE6ECE80CE901200000ECE6ECE80CE909E
:10027000000ECE6ECE80CE90040ECE6ECE80CE908E
:10028000040ECE6ECE80CE90000ECE6ECE80CE907E
:10029000000ECE6ECE80CE90040ECE6ECE80CE906E
:1002A0001200000ECE6ECE80CE90040ECE6ECE80AA
:1002B000CE90040ECE6ECE80CE90000ECE6ECE804E
:1002C000CE90000ECE6ECE80CE90000ECE6ECE8042
:1002D000CE90000ECE6ECE80CE901200000ECE6E6E
:1002E000CE80CE90040ECE6ECE80CE90000ECE6E1E
:1002F000CE80CE90000ECE6ECE80CE90040ECE6E0E
:10030000CE80CE90000ECE6ECE80CE90000ECE6E01
:10031000CE80CE901200040ECE6ECE80CE90040E13
:10032000CE6ECE80CE90040ECE6ECE80CE90040ED9
:10033000CE6ECE80CE90000ECE6ECE80CE90000ED1
:10034000CE6ECE80CE90040ECE6ECE80CE901200B9
:10035000040ECE6ECE80CE90000ECE6ECE80CE90AD
:10036000000ECE6ECE80CE90000ECE6ECE80CE90A1
:10037000000ECE6ECE80CE90000ECE6ECE80CE9091
:10038000000ECE6ECE80CE901200A8EC01F0040ECE
:10039000CE6ECE80CE90A8EC01F0CE82CE92000E32
:1003A000046EE8ECFFF00DEF00F0A3EC00F0040E9B
:1003B000CE6ECE80CE90A3EC00F0CE82CE92990E7F
:1003C000046EE8ECFFF00DEF00F02062EBEF01F0BF
:1003D000A8EC01F012002162F1EF01F08BEC01F0CA
:1003E00012002262F7EF01F06EEC01F012002362BE
:1003F000FDEF01F051EC01F01200246203EF02F076
:1004000034EC01F01200256209EF02F017EC01F064
:10041000120026620FEF02F0FAEC00F012002762E1
:1004200015EF02F0DDEC00F0120028621BEF02F085
:10043000C0EC00F0120029620000A3EC00F01200F2
:10044000990E086E0F0E186EF00E196E000E206ECB
:10045000010E216E020E226E030E236E040E246E18
:10046000050E256E060E266E070E276E080E286EE8
:0A047000090E296E0F0E356E120002
:020000040001F9
:10FE900000EF00F0010E006E0000002E4CEFFFF0AE
:10FEA0001200060E006E0000002E54EFFFF012004C
:10FEB0000B0E006E0000002E5AEFFFF01200170E1E
:10FEC000006E000000000000002E63EFFFF0120043
:10FED000400E006E00000000002E6CEFFFF01200DC
:10FEE0003D0E006E0000002E72EFFFF012007B0E40
:10FEF000006E000000000000002E7BEFFFF01200FB
:10FF0000F80E006E000000000000002E84EFFFF0ED
:10FF10001200050E016E00000000F80E006E0000D9
:10FF2000002E8FEFFFF00000012E8DEFFFF000009C
:10FF3000000012000A0E016E00000000F80E006EB4
:10FF40000000002EA0EFFFF000000000012E9EEF49
:10FF5000FFF0000000001200190E016EF80E006E96
:10FF600000000000002EB1EFFFF000000000012EA5
:10FF7000AEEFFFF01200320E016EF80E006E0000C0
:10FF80000000002EC0EFFFF000000000012EBDEFCA
:10FF9000FFF01200640E016EF80E006E000000000B
:10FFA000002ECFEFFFF000000000012ECCEFFFF09D
:10FFB0001200C80E016EF80E006E00000000002E48
:10FFC000DEEFFFF000000000012EDBEFFFF012007B
:10FFD000F1ECFFF0F1ECFFF0F1ECFFF0F1ECFFF0F1
:10FFE0001200FA0E016EF80E006E0000002EF5EF02
:10FFF000FFF0000000000000012EF3EFFFF0120000
:020000040030CA
:10000000EC0D27C79FFFFFFFFFFFFFFFFFFFFFFF75
:10001000FFFFFFFFFFFFFFFFFFFFFFFFFFFFFFFFF0
:03002000FFFFFFE0
:00000001FF
