:100000004BED00F051ED00F0E8ECFFF0CEB660EF04
:1000100000F067EF00F0CEB610EF00F02DEF00F02B
:100020000450036216EF00F00BEF00F004B604A0DA
:100030001CEF00F025EF00F0010E04240401CF6F47
:10004000046EE8ECFFF00BEF00F0070E0424CF6E17
:10005000046EE8ECFFF00BEF00F00450106E106639
:1000600034EF00F00BEF00F03014316E31663BEFEF
:1000700000F043EF00F0010E045CCF6E046EE8EC7C
:10008000FFF00BEF00F0070E045CCF6E046EE8EC9F
:10009000FFF00BEF00F00001600EAD6F020EB16FCC
:1000A00012000401CF6B086B000EC76E0401CE6B0B
:1000B000006BC6870187990E036E0F0E306E12001B
:1000C000000ECF6E046EE8ECFFF00BEF00F0990E1F
:0C00D000CF6E046EE8ECFFF00BEF00F0C8
:020000040001F9
:10FE900000EF00F0010E006E0000002E4CEFFFF0AE
:10FEA0001200060E006E0000002E54EFFFF012004C
:10FEB0000B0E006E0000002E5AEFFFF01200170E1E
:10FEC000006E000000000000002E63EFFFF0120043
:10FED000400E006E00000000002E6CEFFFF01200DC
:10FEE0003D0E006E0000002E72EFFFF012007B0E40
:10FEF000006E000000000000002E7BEFFFF01200FB
:10FF0000F80E006E000000000000002E84EFFFF0ED
:10FF10001200050E016E00000000F80E006E0000D9
:10FF2000002E8FEFFFF00000012E8DEFFFF000009C
:10FF3000000012000A0E016E00000000F80E006EB4
:10FF40000000002EA0EFFFF000000000012E9EEF49
:10FF5000FFF0000000001200190E016EF80E006E96
:10FF600000000000002EB1EFFFF000000000012EA5
:10FF7000AEEFFFF01200320E016EF80E006E0000C0
:10FF80000000002EC0EFFFF000000000012EBDEFCA
:10FF9000FFF01200640E016EF80E006E000000000B
:10FFA000002ECFEFFFF000000000012ECCEFFFF09D
:10FFB0001200C80E016EF80E006E00000000002E48
:10FFC000DEEFFFF000000000012EDBEFFFF012007B
:10FFD000F1ECFFF0F1ECFFF0F1ECFFF0F1ECFFF0F1
:10FFE0001200FA0E016EF80E006E0000002EF5EF02
:10FFF000FFF0000000000000012EF3EFFFF0120000
:020000040030CA
:10000000EC0D27C79FFFFFFFFFFFFFFFFFFFFFFF75
:10001000FFFFFFFFFFFFFFFFFFFFFFFFFFFFFFFFF0
:03002000FFFFFFE0
:00000001FF
